{
	"contracts/token_send.sol": {
		"tokenSend": {
			"abi": [
				{
					"inputs": [
						{
							"internalType": "uint256",
							"name": "amount",
							"type": "uint256"
						}
					],
					"name": "NotEnoughCurrency",
					"type": "error"
				},
				{
					"anonymous": false,
					"inputs": [
						{
							"indexed": false,
							"internalType": "address",
							"name": "sender",
							"type": "address"
						},
						{
							"indexed": false,
							"internalType": "address",
							"name": "receiver",
							"type": "address"
						},
						{
							"indexed": false,
							"internalType": "uint256",
							"name": "amount",
							"type": "uint256"
						}
					],
					"name": "CurrencySent",
					"type": "event"
				},
				{
					"inputs": [
						{
							"internalType": "address payable",
							"name": "receiver",
							"type": "address"
						}
					],
					"name": "sendToken",
					"outputs": [],
					"stateMutability": "payable",
					"type": "function"
				}
			],
			"devdoc": {
				"kind": "dev",
				"methods": {},
				"version": 1
			},
			"evm": {
				"assembly": "    /* \"contracts/token_send.sol\":70:594  contract tokenSend {... */\n  mstore(0x40, 0x80)\n  callvalue\n  dup1\n  iszero\n  tag_1\n  jumpi\n  revert(0x00, 0x00)\ntag_1:\n  pop\n  dataSize(sub_0)\n  dup1\n  dataOffset(sub_0)\n  0x00\n  codecopy\n  0x00\n  return\nstop\n\nsub_0: assembly {\n        /* \"contracts/token_send.sol\":70:594  contract tokenSend {... */\n      mstore(0x40, 0x80)\n      jumpi(tag_1, lt(calldatasize, 0x04))\n      shr(0xe0, calldataload(0x00))\n      dup1\n      0xc575c238\n      eq\n      tag_2\n      jumpi\n    tag_1:\n      revert(0x00, 0x00)\n        /* \"contracts/token_send.sol\":274:592  function sendToken(address payable receiver) external payable {... */\n    tag_2:\n      tag_3\n      0x04\n      dup1\n      calldatasize\n      sub\n      dup2\n      add\n      swap1\n      tag_4\n      swap2\n      swap1\n      tag_5\n      jump\t// in\n    tag_4:\n      tag_6\n      jump\t// in\n    tag_3:\n      stop\n    tag_6:\n        /* \"contracts/token_send.sol\":375:376  0 */\n      0x00\n        /* \"contracts/token_send.sol\":363:372  msg.value */\n      callvalue\n        /* \"contracts/token_send.sol\":363:376  msg.value > 0 */\n      gt\n        /* \"contracts/token_send.sol\":355:408  require(msg.value > 0, \"You have to send something.\") */\n      tag_8\n      jumpi\n      mload(0x40)\n      0x08c379a000000000000000000000000000000000000000000000000000000000\n      dup2\n      mstore\n      0x04\n      add\n      tag_9\n      swap1\n      tag_10\n      jump\t// in\n    tag_9:\n      mload(0x40)\n      dup1\n      swap2\n      sub\n      swap1\n      revert\n    tag_8:\n        /* \"contracts/token_send.sol\":420:432  bool success */\n      0x00\n        /* \"contracts/token_send.sol\":438:446  receiver */\n      dup2\n        /* \"contracts/token_send.sol\":438:451  receiver.call */\n      0xffffffffffffffffffffffffffffffffffffffff\n      and\n        /* \"contracts/token_send.sol\":459:468  msg.value */\n      callvalue\n        /* \"contracts/token_send.sol\":438:473  receiver.call{value: msg.value}(\"\") */\n      mload(0x40)\n      tag_11\n      swap1\n      tag_12\n      jump\t// in\n    tag_11:\n      0x00\n      mload(0x40)\n      dup1\n      dup4\n      sub\n      dup2\n      dup6\n      dup8\n      gas\n      call\n      swap3\n      pop\n      pop\n      pop\n      returndatasize\n      dup1\n      0x00\n      dup2\n      eq\n      tag_15\n      jumpi\n      mload(0x40)\n      swap2\n      pop\n      and(add(returndatasize, 0x3f), not(0x1f))\n      dup3\n      add\n      0x40\n      mstore\n      returndatasize\n      dup3\n      mstore\n      returndatasize\n      0x00\n      0x20\n      dup5\n      add\n      returndatacopy\n      jump(tag_14)\n    tag_15:\n      0x60\n      swap2\n      pop\n    tag_14:\n      pop\n        /* \"contracts/token_send.sol\":419:473  (bool success, ) = receiver.call{value: msg.value}(\"\") */\n      pop\n      swap1\n      pop\n        /* \"contracts/token_send.sol\":491:498  success */\n      dup1\n        /* \"contracts/token_send.sol\":483:519  require(success, \"Transfer failed.\") */\n      tag_16\n      jumpi\n      mload(0x40)\n      0x08c379a000000000000000000000000000000000000000000000000000000000\n      dup2\n      mstore\n      0x04\n      add\n      tag_17\n      swap1\n      tag_18\n      jump\t// in\n    tag_17:\n      mload(0x40)\n      dup1\n      swap2\n      sub\n      swap1\n      revert\n    tag_16:\n        /* \"contracts/token_send.sol\":535:580  CurrencySent(msg.sender, receiver, msg.value) */\n      0xc744167cec437dc10ff9ec6c178ddd10a25f5c92a64027485861417aecfd892c\n        /* \"contracts/token_send.sol\":548:558  msg.sender */\n      caller\n        /* \"contracts/token_send.sol\":560:568  receiver */\n      dup4\n        /* \"contracts/token_send.sol\":570:579  msg.value */\n      callvalue\n        /* \"contracts/token_send.sol\":535:580  CurrencySent(msg.sender, receiver, msg.value) */\n      mload(0x40)\n      tag_19\n      swap4\n      swap3\n      swap2\n      swap1\n      tag_20\n      jump\t// in\n    tag_19:\n      mload(0x40)\n      dup1\n      swap2\n      sub\n      swap1\n      log1\n        /* \"contracts/token_send.sol\":336:592  {... */\n      pop\n        /* \"contracts/token_send.sol\":274:592  function sendToken(address payable receiver) external payable {... */\n      pop\n      jump\t// out\n        /* \"#utility.yul\":88:205   */\n    tag_22:\n        /* \"#utility.yul\":197:198   */\n      0x00\n        /* \"#utility.yul\":194:195   */\n      0x00\n        /* \"#utility.yul\":187:199   */\n      revert\n        /* \"#utility.yul\":334:460   */\n    tag_24:\n        /* \"#utility.yul\":371:378   */\n      0x00\n        /* \"#utility.yul\":411:453   */\n      0xffffffffffffffffffffffffffffffffffffffff\n        /* \"#utility.yul\":404:409   */\n      dup3\n        /* \"#utility.yul\":400:454   */\n      and\n        /* \"#utility.yul\":389:454   */\n      swap1\n      pop\n        /* \"#utility.yul\":334:460   */\n      swap2\n      swap1\n      pop\n      jump\t// out\n        /* \"#utility.yul\":466:570   */\n    tag_25:\n        /* \"#utility.yul\":511:518   */\n      0x00\n        /* \"#utility.yul\":540:564   */\n      tag_51\n        /* \"#utility.yul\":558:563   */\n      dup3\n        /* \"#utility.yul\":540:564   */\n      tag_24\n      jump\t// in\n    tag_51:\n        /* \"#utility.yul\":529:564   */\n      swap1\n      pop\n        /* \"#utility.yul\":466:570   */\n      swap2\n      swap1\n      pop\n      jump\t// out\n        /* \"#utility.yul\":576:714   */\n    tag_26:\n        /* \"#utility.yul\":657:689   */\n      tag_53\n        /* \"#utility.yul\":683:688   */\n      dup2\n        /* \"#utility.yul\":657:689   */\n      tag_25\n      jump\t// in\n    tag_53:\n        /* \"#utility.yul\":650:655   */\n      dup2\n        /* \"#utility.yul\":647:690   */\n      eq\n        /* \"#utility.yul\":637:708   */\n      tag_54\n      jumpi\n        /* \"#utility.yul\":704:705   */\n      0x00\n        /* \"#utility.yul\":701:702   */\n      0x00\n        /* \"#utility.yul\":694:706   */\n      revert\n        /* \"#utility.yul\":637:708   */\n    tag_54:\n        /* \"#utility.yul\":576:714   */\n      pop\n      jump\t// out\n        /* \"#utility.yul\":720:875   */\n    tag_27:\n        /* \"#utility.yul\":774:779   */\n      0x00\n        /* \"#utility.yul\":812:818   */\n      dup2\n        /* \"#utility.yul\":799:819   */\n      calldataload\n        /* \"#utility.yul\":790:819   */\n      swap1\n      pop\n        /* \"#utility.yul\":828:869   */\n      tag_56\n        /* \"#utility.yul\":863:868   */\n      dup2\n        /* \"#utility.yul\":828:869   */\n      tag_26\n      jump\t// in\n    tag_56:\n        /* \"#utility.yul\":720:875   */\n      swap3\n      swap2\n      pop\n      pop\n      jump\t// out\n        /* \"#utility.yul\":881:1226   */\n    tag_5:\n        /* \"#utility.yul\":948:954   */\n      0x00\n        /* \"#utility.yul\":997:999   */\n      0x20\n        /* \"#utility.yul\":985:994   */\n      dup3\n        /* \"#utility.yul\":976:983   */\n      dup5\n        /* \"#utility.yul\":972:995   */\n      sub\n        /* \"#utility.yul\":968:1000   */\n      slt\n        /* \"#utility.yul\":965:1084   */\n      iszero\n      tag_58\n      jumpi\n        /* \"#utility.yul\":1003:1082   */\n      tag_59\n      tag_22\n      jump\t// in\n    tag_59:\n        /* \"#utility.yul\":965:1084   */\n    tag_58:\n        /* \"#utility.yul\":1123:1124   */\n      0x00\n        /* \"#utility.yul\":1148:1209   */\n      tag_60\n        /* \"#utility.yul\":1201:1208   */\n      dup5\n        /* \"#utility.yul\":1192:1198   */\n      dup3\n        /* \"#utility.yul\":1181:1190   */\n      dup6\n        /* \"#utility.yul\":1177:1199   */\n      add\n        /* \"#utility.yul\":1148:1209   */\n      tag_27\n      jump\t// in\n    tag_60:\n        /* \"#utility.yul\":1138:1209   */\n      swap2\n      pop\n        /* \"#utility.yul\":1094:1219   */\n      pop\n        /* \"#utility.yul\":881:1226   */\n      swap3\n      swap2\n      pop\n      pop\n      jump\t// out\n        /* \"#utility.yul\":1232:1401   */\n    tag_28:\n        /* \"#utility.yul\":1316:1327   */\n      0x00\n        /* \"#utility.yul\":1350:1356   */\n      dup3\n        /* \"#utility.yul\":1345:1348   */\n      dup3\n        /* \"#utility.yul\":1338:1357   */\n      mstore\n        /* \"#utility.yul\":1390:1394   */\n      0x20\n        /* \"#utility.yul\":1385:1388   */\n      dup3\n        /* \"#utility.yul\":1381:1395   */\n      add\n        /* \"#utility.yul\":1366:1395   */\n      swap1\n      pop\n        /* \"#utility.yul\":1232:1401   */\n      swap3\n      swap2\n      pop\n      pop\n      jump\t// out\n        /* \"#utility.yul\":1407:1584   */\n    tag_29:\n        /* \"#utility.yul\":1547:1576   */\n      0x596f75206861766520746f2073656e6420736f6d657468696e672e0000000000\n        /* \"#utility.yul\":1543:1544   */\n      0x00\n        /* \"#utility.yul\":1535:1541   */\n      dup3\n        /* \"#utility.yul\":1531:1545   */\n      add\n        /* \"#utility.yul\":1524:1577   */\n      mstore\n        /* \"#utility.yul\":1407:1584   */\n      pop\n      jump\t// out\n        /* \"#utility.yul\":1590:1956   */\n    tag_30:\n        /* \"#utility.yul\":1732:1735   */\n      0x00\n        /* \"#utility.yul\":1753:1820   */\n      tag_64\n        /* \"#utility.yul\":1817:1819   */\n      0x1b\n        /* \"#utility.yul\":1812:1815   */\n      dup4\n        /* \"#utility.yul\":1753:1820   */\n      tag_28\n      jump\t// in\n    tag_64:\n        /* \"#utility.yul\":1746:1820   */\n      swap2\n      pop\n        /* \"#utility.yul\":1829:1922   */\n      tag_65\n        /* \"#utility.yul\":1918:1921   */\n      dup3\n        /* \"#utility.yul\":1829:1922   */\n      tag_29\n      jump\t// in\n    tag_65:\n        /* \"#utility.yul\":1947:1949   */\n      0x20\n        /* \"#utility.yul\":1942:1945   */\n      dup3\n        /* \"#utility.yul\":1938:1950   */\n      add\n        /* \"#utility.yul\":1931:1950   */\n      swap1\n      pop\n        /* \"#utility.yul\":1590:1956   */\n      swap2\n      swap1\n      pop\n      jump\t// out\n        /* \"#utility.yul\":1962:2381   */\n    tag_10:\n        /* \"#utility.yul\":2128:2132   */\n      0x00\n        /* \"#utility.yul\":2166:2168   */\n      0x20\n        /* \"#utility.yul\":2155:2164   */\n      dup3\n        /* \"#utility.yul\":2151:2169   */\n      add\n        /* \"#utility.yul\":2143:2169   */\n      swap1\n      pop\n        /* \"#utility.yul\":2215:2224   */\n      dup2\n        /* \"#utility.yul\":2209:2213   */\n      dup2\n        /* \"#utility.yul\":2205:2225   */\n      sub\n        /* \"#utility.yul\":2201:2202   */\n      0x00\n        /* \"#utility.yul\":2190:2199   */\n      dup4\n        /* \"#utility.yul\":2186:2203   */\n      add\n        /* \"#utility.yul\":2179:2226   */\n      mstore\n        /* \"#utility.yul\":2243:2374   */\n      tag_67\n        /* \"#utility.yul\":2369:2373   */\n      dup2\n        /* \"#utility.yul\":2243:2374   */\n      tag_30\n      jump\t// in\n    tag_67:\n        /* \"#utility.yul\":2235:2374   */\n      swap1\n      pop\n        /* \"#utility.yul\":1962:2381   */\n      swap2\n      swap1\n      pop\n      jump\t// out\n        /* \"#utility.yul\":2387:2534   */\n    tag_31:\n        /* \"#utility.yul\":2488:2499   */\n      0x00\n        /* \"#utility.yul\":2525:2528   */\n      dup2\n        /* \"#utility.yul\":2510:2528   */\n      swap1\n      pop\n        /* \"#utility.yul\":2387:2534   */\n      swap3\n      swap2\n      pop\n      pop\n      jump\t// out\n        /* \"#utility.yul\":2540:2654   */\n    tag_32:\n      pop\n      jump\t// out\n        /* \"#utility.yul\":2660:3058   */\n    tag_33:\n        /* \"#utility.yul\":2819:2822   */\n      0x00\n        /* \"#utility.yul\":2840:2923   */\n      tag_71\n        /* \"#utility.yul\":2921:2922   */\n      0x00\n        /* \"#utility.yul\":2916:2919   */\n      dup4\n        /* \"#utility.yul\":2840:2923   */\n      tag_31\n      jump\t// in\n    tag_71:\n        /* \"#utility.yul\":2833:2923   */\n      swap2\n      pop\n        /* \"#utility.yul\":2932:3025   */\n      tag_72\n        /* \"#utility.yul\":3021:3024   */\n      dup3\n        /* \"#utility.yul\":2932:3025   */\n      tag_32\n      jump\t// in\n    tag_72:\n        /* \"#utility.yul\":3050:3051   */\n      0x00\n        /* \"#utility.yul\":3045:3048   */\n      dup3\n        /* \"#utility.yul\":3041:3052   */\n      add\n        /* \"#utility.yul\":3034:3052   */\n      swap1\n      pop\n        /* \"#utility.yul\":2660:3058   */\n      swap2\n      swap1\n      pop\n      jump\t// out\n        /* \"#utility.yul\":3064:3443   */\n    tag_12:\n        /* \"#utility.yul\":3248:3251   */\n      0x00\n        /* \"#utility.yul\":3270:3417   */\n      tag_74\n        /* \"#utility.yul\":3413:3416   */\n      dup3\n        /* \"#utility.yul\":3270:3417   */\n      tag_33\n      jump\t// in\n    tag_74:\n        /* \"#utility.yul\":3263:3417   */\n      swap2\n      pop\n        /* \"#utility.yul\":3434:3437   */\n      dup2\n        /* \"#utility.yul\":3427:3437   */\n      swap1\n      pop\n        /* \"#utility.yul\":3064:3443   */\n      swap2\n      swap1\n      pop\n      jump\t// out\n        /* \"#utility.yul\":3449:3615   */\n    tag_34:\n        /* \"#utility.yul\":3589:3607   */\n      0x5472616e73666572206661696c65642e00000000000000000000000000000000\n        /* \"#utility.yul\":3585:3586   */\n      0x00\n        /* \"#utility.yul\":3577:3583   */\n      dup3\n        /* \"#utility.yul\":3573:3587   */\n      add\n        /* \"#utility.yul\":3566:3608   */\n      mstore\n        /* \"#utility.yul\":3449:3615   */\n      pop\n      jump\t// out\n        /* \"#utility.yul\":3621:3987   */\n    tag_35:\n        /* \"#utility.yul\":3763:3766   */\n      0x00\n        /* \"#utility.yul\":3784:3851   */\n      tag_77\n        /* \"#utility.yul\":3848:3850   */\n      0x10\n        /* \"#utility.yul\":3843:3846   */\n      dup4\n        /* \"#utility.yul\":3784:3851   */\n      tag_28\n      jump\t// in\n    tag_77:\n        /* \"#utility.yul\":3777:3851   */\n      swap2\n      pop\n        /* \"#utility.yul\":3860:3953   */\n      tag_78\n        /* \"#utility.yul\":3949:3952   */\n      dup3\n        /* \"#utility.yul\":3860:3953   */\n      tag_34\n      jump\t// in\n    tag_78:\n        /* \"#utility.yul\":3978:3980   */\n      0x20\n        /* \"#utility.yul\":3973:3976   */\n      dup3\n        /* \"#utility.yul\":3969:3981   */\n      add\n        /* \"#utility.yul\":3962:3981   */\n      swap1\n      pop\n        /* \"#utility.yul\":3621:3987   */\n      swap2\n      swap1\n      pop\n      jump\t// out\n        /* \"#utility.yul\":3993:4412   */\n    tag_18:\n        /* \"#utility.yul\":4159:4163   */\n      0x00\n        /* \"#utility.yul\":4197:4199   */\n      0x20\n        /* \"#utility.yul\":4186:4195   */\n      dup3\n        /* \"#utility.yul\":4182:4200   */\n      add\n        /* \"#utility.yul\":4174:4200   */\n      swap1\n      pop\n        /* \"#utility.yul\":4246:4255   */\n      dup2\n        /* \"#utility.yul\":4240:4244   */\n      dup2\n        /* \"#utility.yul\":4236:4256   */\n      sub\n        /* \"#utility.yul\":4232:4233   */\n      0x00\n        /* \"#utility.yul\":4221:4230   */\n      dup4\n        /* \"#utility.yul\":4217:4234   */\n      add\n        /* \"#utility.yul\":4210:4257   */\n      mstore\n        /* \"#utility.yul\":4274:4405   */\n      tag_80\n        /* \"#utility.yul\":4400:4404   */\n      dup2\n        /* \"#utility.yul\":4274:4405   */\n      tag_35\n      jump\t// in\n    tag_80:\n        /* \"#utility.yul\":4266:4405   */\n      swap1\n      pop\n        /* \"#utility.yul\":3993:4412   */\n      swap2\n      swap1\n      pop\n      jump\t// out\n        /* \"#utility.yul\":4418:4514   */\n    tag_36:\n        /* \"#utility.yul\":4455:4462   */\n      0x00\n        /* \"#utility.yul\":4484:4508   */\n      tag_82\n        /* \"#utility.yul\":4502:4507   */\n      dup3\n        /* \"#utility.yul\":4484:4508   */\n      tag_24\n      jump\t// in\n    tag_82:\n        /* \"#utility.yul\":4473:4508   */\n      swap1\n      pop\n        /* \"#utility.yul\":4418:4514   */\n      swap2\n      swap1\n      pop\n      jump\t// out\n        /* \"#utility.yul\":4520:4638   */\n    tag_37:\n        /* \"#utility.yul\":4607:4631   */\n      tag_84\n        /* \"#utility.yul\":4625:4630   */\n      dup2\n        /* \"#utility.yul\":4607:4631   */\n      tag_36\n      jump\t// in\n    tag_84:\n        /* \"#utility.yul\":4602:4605   */\n      dup3\n        /* \"#utility.yul\":4595:4632   */\n      mstore\n        /* \"#utility.yul\":4520:4638   */\n      pop\n      pop\n      jump\t// out\n        /* \"#utility.yul\":4644:4704   */\n    tag_38:\n        /* \"#utility.yul\":4672:4675   */\n      0x00\n        /* \"#utility.yul\":4693:4698   */\n      dup2\n        /* \"#utility.yul\":4686:4698   */\n      swap1\n      pop\n        /* \"#utility.yul\":4644:4704   */\n      swap2\n      swap1\n      pop\n      jump\t// out\n        /* \"#utility.yul\":4710:4852   */\n    tag_39:\n        /* \"#utility.yul\":4760:4769   */\n      0x00\n        /* \"#utility.yul\":4793:4846   */\n      tag_87\n        /* \"#utility.yul\":4811:4845   */\n      tag_88\n        /* \"#utility.yul\":4820:4844   */\n      tag_89\n        /* \"#utility.yul\":4838:4843   */\n      dup5\n        /* \"#utility.yul\":4820:4844   */\n      tag_24\n      jump\t// in\n    tag_89:\n        /* \"#utility.yul\":4811:4845   */\n      tag_38\n      jump\t// in\n    tag_88:\n        /* \"#utility.yul\":4793:4846   */\n      tag_24\n      jump\t// in\n    tag_87:\n        /* \"#utility.yul\":4780:4846   */\n      swap1\n      pop\n        /* \"#utility.yul\":4710:4852   */\n      swap2\n      swap1\n      pop\n      jump\t// out\n        /* \"#utility.yul\":4858:4984   */\n    tag_40:\n        /* \"#utility.yul\":4908:4917   */\n      0x00\n        /* \"#utility.yul\":4941:4978   */\n      tag_91\n        /* \"#utility.yul\":4972:4977   */\n      dup3\n        /* \"#utility.yul\":4941:4978   */\n      tag_39\n      jump\t// in\n    tag_91:\n        /* \"#utility.yul\":4928:4978   */\n      swap1\n      pop\n        /* \"#utility.yul\":4858:4984   */\n      swap2\n      swap1\n      pop\n      jump\t// out\n        /* \"#utility.yul\":4990:5124   */\n    tag_41:\n        /* \"#utility.yul\":5048:5057   */\n      0x00\n        /* \"#utility.yul\":5081:5118   */\n      tag_93\n        /* \"#utility.yul\":5112:5117   */\n      dup3\n        /* \"#utility.yul\":5081:5118   */\n      tag_40\n      jump\t// in\n    tag_93:\n        /* \"#utility.yul\":5068:5118   */\n      swap1\n      pop\n        /* \"#utility.yul\":4990:5124   */\n      swap2\n      swap1\n      pop\n      jump\t// out\n        /* \"#utility.yul\":5130:5277   */\n    tag_42:\n        /* \"#utility.yul\":5225:5270   */\n      tag_95\n        /* \"#utility.yul\":5264:5269   */\n      dup2\n        /* \"#utility.yul\":5225:5270   */\n      tag_41\n      jump\t// in\n    tag_95:\n        /* \"#utility.yul\":5220:5223   */\n      dup3\n        /* \"#utility.yul\":5213:5271   */\n      mstore\n        /* \"#utility.yul\":5130:5277   */\n      pop\n      pop\n      jump\t// out\n        /* \"#utility.yul\":5283:5360   */\n    tag_43:\n        /* \"#utility.yul\":5320:5327   */\n      0x00\n        /* \"#utility.yul\":5349:5354   */\n      dup2\n        /* \"#utility.yul\":5338:5354   */\n      swap1\n      pop\n        /* \"#utility.yul\":5283:5360   */\n      swap2\n      swap1\n      pop\n      jump\t// out\n        /* \"#utility.yul\":5366:5484   */\n    tag_44:\n        /* \"#utility.yul\":5453:5477   */\n      tag_98\n        /* \"#utility.yul\":5471:5476   */\n      dup2\n        /* \"#utility.yul\":5453:5477   */\n      tag_43\n      jump\t// in\n    tag_98:\n        /* \"#utility.yul\":5448:5451   */\n      dup3\n        /* \"#utility.yul\":5441:5478   */\n      mstore\n        /* \"#utility.yul\":5366:5484   */\n      pop\n      pop\n      jump\t// out\n        /* \"#utility.yul\":5490:5948   */\n    tag_20:\n        /* \"#utility.yul\":5647:5651   */\n      0x00\n        /* \"#utility.yul\":5685:5687   */\n      0x60\n        /* \"#utility.yul\":5674:5683   */\n      dup3\n        /* \"#utility.yul\":5670:5688   */\n      add\n        /* \"#utility.yul\":5662:5688   */\n      swap1\n      pop\n        /* \"#utility.yul\":5698:5769   */\n      tag_100\n        /* \"#utility.yul\":5766:5767   */\n      0x00\n        /* \"#utility.yul\":5755:5764   */\n      dup4\n        /* \"#utility.yul\":5751:5768   */\n      add\n        /* \"#utility.yul\":5742:5748   */\n      dup7\n        /* \"#utility.yul\":5698:5769   */\n      tag_37\n      jump\t// in\n    tag_100:\n        /* \"#utility.yul\":5779:5859   */\n      tag_101\n        /* \"#utility.yul\":5855:5857   */\n      0x20\n        /* \"#utility.yul\":5844:5853   */\n      dup4\n        /* \"#utility.yul\":5840:5858   */\n      add\n        /* \"#utility.yul\":5831:5837   */\n      dup6\n        /* \"#utility.yul\":5779:5859   */\n      tag_42\n      jump\t// in\n    tag_101:\n        /* \"#utility.yul\":5869:5941   */\n      tag_102\n        /* \"#utility.yul\":5937:5939   */\n      0x40\n        /* \"#utility.yul\":5926:5935   */\n      dup4\n        /* \"#utility.yul\":5922:5940   */\n      add\n        /* \"#utility.yul\":5913:5919   */\n      dup5\n        /* \"#utility.yul\":5869:5941   */\n      tag_44\n      jump\t// in\n    tag_102:\n        /* \"#utility.yul\":5490:5948   */\n      swap5\n      swap4\n      pop\n      pop\n      pop\n      pop\n      jump\t// out\n\n    auxdata: 0xa2646970667358221220dbe723a330fdf4025599bca18793ffd0d0bd4399851a0e671e6cf74af119274064736f6c634300081e0033\n}\n",
				"bytecode": {
					"linkReferences": {},
					"object": "6080604052348015600e575f5ffd5b5061040e8061001c5f395ff3fe60806040526004361061001d575f3560e01c8063c575c23814610021575b5f5ffd5b61003b600480360381019061003691906101c4565b61003d565b005b5f341161007f576040517f08c379a000000000000000000000000000000000000000000000000000000000815260040161007690610249565b60405180910390fd5b5f8173ffffffffffffffffffffffffffffffffffffffff16346040516100a490610294565b5f6040518083038185875af1925050503d805f81146100de576040519150601f19603f3d011682016040523d82523d5f602084013e6100e3565b606091505b5050905080610127576040517f08c379a000000000000000000000000000000000000000000000000000000000815260040161011e906102f2565b60405180910390fd5b7fc744167cec437dc10ff9ec6c178ddd10a25f5c92a64027485861417aecfd892c33833460405161015a939291906103a3565b60405180910390a15050565b5f5ffd5b5f73ffffffffffffffffffffffffffffffffffffffff82169050919050565b5f6101938261016a565b9050919050565b6101a381610189565b81146101ad575f5ffd5b50565b5f813590506101be8161019a565b92915050565b5f602082840312156101d9576101d8610166565b5b5f6101e6848285016101b0565b91505092915050565b5f82825260208201905092915050565b7f596f75206861766520746f2073656e6420736f6d657468696e672e00000000005f82015250565b5f610233601b836101ef565b915061023e826101ff565b602082019050919050565b5f6020820190508181035f83015261026081610227565b9050919050565b5f81905092915050565b50565b5f61027f5f83610267565b915061028a82610271565b5f82019050919050565b5f61029e82610274565b9150819050919050565b7f5472616e73666572206661696c65642e000000000000000000000000000000005f82015250565b5f6102dc6010836101ef565b91506102e7826102a8565b602082019050919050565b5f6020820190508181035f830152610309816102d0565b9050919050565b5f61031a8261016a565b9050919050565b61032a81610310565b82525050565b5f819050919050565b5f61035361034e6103498461016a565b610330565b61016a565b9050919050565b5f61036482610339565b9050919050565b5f6103758261035a565b9050919050565b6103858161036b565b82525050565b5f819050919050565b61039d8161038b565b82525050565b5f6060820190506103b65f830186610321565b6103c3602083018561037c565b6103d06040830184610394565b94935050505056fea2646970667358221220dbe723a330fdf4025599bca18793ffd0d0bd4399851a0e671e6cf74af119274064736f6c634300081e0033",
					"opcodes": "PUSH1 0x80 PUSH1 0x40 MSTORE CALLVALUE DUP1 ISZERO PUSH1 0xE JUMPI PUSH0 PUSH0 REVERT JUMPDEST POP PUSH2 0x40E DUP1 PUSH2 0x1C PUSH0 CODECOPY PUSH0 RETURN INVALID PUSH1 0x80 PUSH1 0x40 MSTORE PUSH1 0x4 CALLDATASIZE LT PUSH2 0x1D JUMPI PUSH0 CALLDATALOAD PUSH1 0xE0 SHR DUP1 PUSH4 0xC575C238 EQ PUSH2 0x21 JUMPI JUMPDEST PUSH0 PUSH0 REVERT JUMPDEST PUSH2 0x3B PUSH1 0x4 DUP1 CALLDATASIZE SUB DUP2 ADD SWAP1 PUSH2 0x36 SWAP2 SWAP1 PUSH2 0x1C4 JUMP JUMPDEST PUSH2 0x3D JUMP JUMPDEST STOP JUMPDEST PUSH0 CALLVALUE GT PUSH2 0x7F JUMPI PUSH1 0x40 MLOAD PUSH32 0x8C379A000000000000000000000000000000000000000000000000000000000 DUP2 MSTORE PUSH1 0x4 ADD PUSH2 0x76 SWAP1 PUSH2 0x249 JUMP JUMPDEST PUSH1 0x40 MLOAD DUP1 SWAP2 SUB SWAP1 REVERT JUMPDEST PUSH0 DUP2 PUSH20 0xFFFFFFFFFFFFFFFFFFFFFFFFFFFFFFFFFFFFFFFF AND CALLVALUE PUSH1 0x40 MLOAD PUSH2 0xA4 SWAP1 PUSH2 0x294 JUMP JUMPDEST PUSH0 PUSH1 0x40 MLOAD DUP1 DUP4 SUB DUP2 DUP6 DUP8 GAS CALL SWAP3 POP POP POP RETURNDATASIZE DUP1 PUSH0 DUP2 EQ PUSH2 0xDE JUMPI PUSH1 0x40 MLOAD SWAP2 POP PUSH1 0x1F NOT PUSH1 0x3F RETURNDATASIZE ADD AND DUP3 ADD PUSH1 0x40 MSTORE RETURNDATASIZE DUP3 MSTORE RETURNDATASIZE PUSH0 PUSH1 0x20 DUP5 ADD RETURNDATACOPY PUSH2 0xE3 JUMP JUMPDEST PUSH1 0x60 SWAP2 POP JUMPDEST POP POP SWAP1 POP DUP1 PUSH2 0x127 JUMPI PUSH1 0x40 MLOAD PUSH32 0x8C379A000000000000000000000000000000000000000000000000000000000 DUP2 MSTORE PUSH1 0x4 ADD PUSH2 0x11E SWAP1 PUSH2 0x2F2 JUMP JUMPDEST PUSH1 0x40 MLOAD DUP1 SWAP2 SUB SWAP1 REVERT JUMPDEST PUSH32 0xC744167CEC437DC10FF9EC6C178DDD10A25F5C92A64027485861417AECFD892C CALLER DUP4 CALLVALUE PUSH1 0x40 MLOAD PUSH2 0x15A SWAP4 SWAP3 SWAP2 SWAP1 PUSH2 0x3A3 JUMP JUMPDEST PUSH1 0x40 MLOAD DUP1 SWAP2 SUB SWAP1 LOG1 POP POP JUMP JUMPDEST PUSH0 PUSH0 REVERT JUMPDEST PUSH0 PUSH20 0xFFFFFFFFFFFFFFFFFFFFFFFFFFFFFFFFFFFFFFFF DUP3 AND SWAP1 POP SWAP2 SWAP1 POP JUMP JUMPDEST PUSH0 PUSH2 0x193 DUP3 PUSH2 0x16A JUMP JUMPDEST SWAP1 POP SWAP2 SWAP1 POP JUMP JUMPDEST PUSH2 0x1A3 DUP2 PUSH2 0x189 JUMP JUMPDEST DUP2 EQ PUSH2 0x1AD JUMPI PUSH0 PUSH0 REVERT JUMPDEST POP JUMP JUMPDEST PUSH0 DUP2 CALLDATALOAD SWAP1 POP PUSH2 0x1BE DUP2 PUSH2 0x19A JUMP JUMPDEST SWAP3 SWAP2 POP POP JUMP JUMPDEST PUSH0 PUSH1 0x20 DUP3 DUP5 SUB SLT ISZERO PUSH2 0x1D9 JUMPI PUSH2 0x1D8 PUSH2 0x166 JUMP JUMPDEST JUMPDEST PUSH0 PUSH2 0x1E6 DUP5 DUP3 DUP6 ADD PUSH2 0x1B0 JUMP JUMPDEST SWAP2 POP POP SWAP3 SWAP2 POP POP JUMP JUMPDEST PUSH0 DUP3 DUP3 MSTORE PUSH1 0x20 DUP3 ADD SWAP1 POP SWAP3 SWAP2 POP POP JUMP JUMPDEST PUSH32 0x596F75206861766520746F2073656E6420736F6D657468696E672E0000000000 PUSH0 DUP3 ADD MSTORE POP JUMP JUMPDEST PUSH0 PUSH2 0x233 PUSH1 0x1B DUP4 PUSH2 0x1EF JUMP JUMPDEST SWAP2 POP PUSH2 0x23E DUP3 PUSH2 0x1FF JUMP JUMPDEST PUSH1 0x20 DUP3 ADD SWAP1 POP SWAP2 SWAP1 POP JUMP JUMPDEST PUSH0 PUSH1 0x20 DUP3 ADD SWAP1 POP DUP2 DUP2 SUB PUSH0 DUP4 ADD MSTORE PUSH2 0x260 DUP2 PUSH2 0x227 JUMP JUMPDEST SWAP1 POP SWAP2 SWAP1 POP JUMP JUMPDEST PUSH0 DUP2 SWAP1 POP SWAP3 SWAP2 POP POP JUMP JUMPDEST POP JUMP JUMPDEST PUSH0 PUSH2 0x27F PUSH0 DUP4 PUSH2 0x267 JUMP JUMPDEST SWAP2 POP PUSH2 0x28A DUP3 PUSH2 0x271 JUMP JUMPDEST PUSH0 DUP3 ADD SWAP1 POP SWAP2 SWAP1 POP JUMP JUMPDEST PUSH0 PUSH2 0x29E DUP3 PUSH2 0x274 JUMP JUMPDEST SWAP2 POP DUP2 SWAP1 POP SWAP2 SWAP1 POP JUMP JUMPDEST PUSH32 0x5472616E73666572206661696C65642E00000000000000000000000000000000 PUSH0 DUP3 ADD MSTORE POP JUMP JUMPDEST PUSH0 PUSH2 0x2DC PUSH1 0x10 DUP4 PUSH2 0x1EF JUMP JUMPDEST SWAP2 POP PUSH2 0x2E7 DUP3 PUSH2 0x2A8 JUMP JUMPDEST PUSH1 0x20 DUP3 ADD SWAP1 POP SWAP2 SWAP1 POP JUMP JUMPDEST PUSH0 PUSH1 0x20 DUP3 ADD SWAP1 POP DUP2 DUP2 SUB PUSH0 DUP4 ADD MSTORE PUSH2 0x309 DUP2 PUSH2 0x2D0 JUMP JUMPDEST SWAP1 POP SWAP2 SWAP1 POP JUMP JUMPDEST PUSH0 PUSH2 0x31A DUP3 PUSH2 0x16A JUMP JUMPDEST SWAP1 POP SWAP2 SWAP1 POP JUMP JUMPDEST PUSH2 0x32A DUP2 PUSH2 0x310 JUMP JUMPDEST DUP3 MSTORE POP POP JUMP JUMPDEST PUSH0 DUP2 SWAP1 POP SWAP2 SWAP1 POP JUMP JUMPDEST PUSH0 PUSH2 0x353 PUSH2 0x34E PUSH2 0x349 DUP5 PUSH2 0x16A JUMP JUMPDEST PUSH2 0x330 JUMP JUMPDEST PUSH2 0x16A JUMP JUMPDEST SWAP1 POP SWAP2 SWAP1 POP JUMP JUMPDEST PUSH0 PUSH2 0x364 DUP3 PUSH2 0x339 JUMP JUMPDEST SWAP1 POP SWAP2 SWAP1 POP JUMP JUMPDEST PUSH0 PUSH2 0x375 DUP3 PUSH2 0x35A JUMP JUMPDEST SWAP1 POP SWAP2 SWAP1 POP JUMP JUMPDEST PUSH2 0x385 DUP2 PUSH2 0x36B JUMP JUMPDEST DUP3 MSTORE POP POP JUMP JUMPDEST PUSH0 DUP2 SWAP1 POP SWAP2 SWAP1 POP JUMP JUMPDEST PUSH2 0x39D DUP2 PUSH2 0x38B JUMP JUMPDEST DUP3 MSTORE POP POP JUMP JUMPDEST PUSH0 PUSH1 0x60 DUP3 ADD SWAP1 POP PUSH2 0x3B6 PUSH0 DUP4 ADD DUP7 PUSH2 0x321 JUMP JUMPDEST PUSH2 0x3C3 PUSH1 0x20 DUP4 ADD DUP6 PUSH2 0x37C JUMP JUMPDEST PUSH2 0x3D0 PUSH1 0x40 DUP4 ADD DUP5 PUSH2 0x394 JUMP JUMPDEST SWAP5 SWAP4 POP POP POP POP JUMP INVALID LOG2 PUSH5 0x6970667358 0x22 SLT KECCAK256 0xDB SWAPN 0x23 LOG3 ADDRESS REVERT DELEGATECALL MUL SSTORE SWAP10 0xBC LOG1 DUP8 SWAP4 SELFDESTRUCT 0xD0 0xD0 0xBD NUMBER SWAP10 DUP6 BYTE 0xE PUSH8 0x1E6CF74AF1192740 PUSH5 0x736F6C6343 STOP ADDMOD 0x1E STOP CALLER "
				},
				"gasEstimates": {
					"creation": {
						"codeDepositCost": "207600",
						"executionCost": "249",
						"totalCost": "207849"
					},
					"external": {
						"sendToken(address)": "infinite"
					}
				},
				"methodIdentifiers": {
					"sendToken(address)": "c575c238"
				}
			},
			"storageLayout": {
				"storage": [],
				"types": null
			},
			"userdoc": {
				"kind": "user",
				"methods": {},
				"version": 1
			}
		}
	}
}